{
  "contractName": "BITS",
  "abi": [
    {
      "inputs": [],
      "payable": false,
      "stateMutability": "nonpayable",
      "type": "constructor"
    },
    {
      "anonymous": false,
      "inputs": [
        {
          "indexed": false,
          "internalType": "uint256",
          "name": "id",
          "type": "uint256"
        },
        {
          "indexed": false,
          "internalType": "bool",
          "name": "completed",
          "type": "bool"
        }
      ],
      "name": "TaskCompleted",
      "type": "event"
    },
    {
      "anonymous": false,
      "inputs": [
        {
          "indexed": false,
          "internalType": "uint256",
          "name": "id",
          "type": "uint256"
        },
        {
          "indexed": false,
          "internalType": "string",
          "name": "name",
          "type": "string"
        },
        {
          "indexed": false,
          "internalType": "string",
          "name": "addr",
          "type": "string"
        },
        {
          "indexed": false,
          "internalType": "string",
          "name": "email",
          "type": "string"
        },
        {
          "indexed": false,
          "internalType": "string",
          "name": "password",
          "type": "string"
        },
        {
          "indexed": false,
          "internalType": "string",
          "name": "telephone",
          "type": "string"
        },
        {
          "indexed": false,
          "internalType": "string",
          "name": "department",
          "type": "string"
        },
        {
          "indexed": false,
          "internalType": "string",
          "name": "subject",
          "type": "string"
        }
      ],
      "name": "facultyCreated",
      "type": "event"
    },
    {
      "anonymous": false,
      "inputs": [
        {
          "indexed": false,
          "internalType": "uint256",
          "name": "id",
          "type": "uint256"
        },
        {
          "indexed": false,
          "internalType": "string",
          "name": "name",
          "type": "string"
        },
        {
          "indexed": false,
          "internalType": "string",
          "name": "DOB",
          "type": "string"
        },
        {
          "indexed": false,
          "internalType": "string",
          "name": "highest_qualification",
          "type": "string"
        },
        {
          "indexed": false,
          "internalType": "string",
          "name": "student_type",
          "type": "string"
        },
        {
          "indexed": false,
          "internalType": "bool",
          "name": "completed",
          "type": "bool"
        }
      ],
      "name": "studentCreated",
      "type": "event"
    },
    {
      "constant": true,
      "inputs": [
        {
          "internalType": "uint256",
          "name": "",
          "type": "uint256"
        }
      ],
      "name": "faculties",
      "outputs": [
        {
          "internalType": "uint256",
          "name": "id",
          "type": "uint256"
        },
        {
          "internalType": "string",
          "name": "name",
          "type": "string"
        },
        {
          "internalType": "string",
          "name": "addr",
          "type": "string"
        },
        {
          "internalType": "string",
          "name": "email",
          "type": "string"
        },
        {
          "internalType": "string",
          "name": "password",
          "type": "string"
        },
        {
          "internalType": "string",
          "name": "telephone",
          "type": "string"
        },
        {
          "internalType": "string",
          "name": "department",
          "type": "string"
        },
        {
          "internalType": "string",
          "name": "subject",
          "type": "string"
        }
      ],
      "payable": false,
      "stateMutability": "view",
      "type": "function"
    },
    {
      "constant": true,
      "inputs": [],
      "name": "faculty_count",
      "outputs": [
        {
          "internalType": "uint256",
          "name": "",
          "type": "uint256"
        }
      ],
      "payable": false,
      "stateMutability": "view",
      "type": "function"
    },
    {
      "constant": true,
      "inputs": [],
      "name": "student_count",
      "outputs": [
        {
          "internalType": "uint256",
          "name": "",
          "type": "uint256"
        }
      ],
      "payable": false,
      "stateMutability": "view",
      "type": "function"
    },
    {
      "constant": true,
      "inputs": [
        {
          "internalType": "uint256",
          "name": "",
          "type": "uint256"
        }
      ],
      "name": "students",
      "outputs": [
        {
          "internalType": "uint256",
          "name": "id",
          "type": "uint256"
        },
        {
          "internalType": "string",
          "name": "name",
          "type": "string"
        },
        {
          "internalType": "string",
          "name": "DOB",
          "type": "string"
        },
        {
          "internalType": "string",
          "name": "highest_qualification",
          "type": "string"
        },
        {
          "internalType": "string",
          "name": "student_type",
          "type": "string"
        },
        {
          "internalType": "bool",
          "name": "completed",
          "type": "bool"
        }
      ],
      "payable": false,
      "stateMutability": "view",
      "type": "function"
    },
    {
      "constant": false,
      "inputs": [
        {
          "internalType": "string",
          "name": "_name",
          "type": "string"
        },
        {
          "internalType": "string",
          "name": "_addr",
          "type": "string"
        },
        {
          "internalType": "string",
          "name": "_email",
          "type": "string"
        },
        {
          "internalType": "string",
          "name": "_password",
          "type": "string"
        },
        {
          "internalType": "string",
          "name": "_telephone",
          "type": "string"
        },
        {
          "internalType": "string",
          "name": "_department",
          "type": "string"
        },
        {
          "internalType": "string",
          "name": "_subject",
          "type": "string"
        }
      ],
      "name": "add_faculty",
      "outputs": [],
      "payable": false,
      "stateMutability": "nonpayable",
      "type": "function"
    },
    {
      "constant": false,
      "inputs": [
        {
          "internalType": "string",
          "name": "_name",
          "type": "string"
        },
        {
          "internalType": "string",
          "name": "_DOB",
          "type": "string"
        },
        {
          "internalType": "string",
          "name": "_highest_qualification",
          "type": "string"
        },
        {
          "internalType": "string",
          "name": "_student_type",
          "type": "string"
        }
      ],
      "name": "add_student",
      "outputs": [],
      "payable": false,
      "stateMutability": "nonpayable",
      "type": "function"
    }
  ],
  "bytecode": "0x6080604052600060025560006003553480156200001b57600080fd5b50620001a66040518060400160405280600781526020017f466163756c7479000000000000000000000000000000000000000000000000008152506040518060400160405280600881526020017f456d6265646465640000000000000000000000000000000000000000000000008152506040518060400160405280600281526020017f4f530000000000000000000000000000000000000000000000000000000000008152506040518060400160405280600181526020017f66000000000000000000000000000000000000000000000000000000000000008152506040518060400160405280600181526020017f61000000000000000000000000000000000000000000000000000000000000008152506040518060400160405280600181526020017f72000000000000000000000000000000000000000000000000000000000000008152506040518060400160405280600281526020017f6572000000000000000000000000000000000000000000000000000000000000815250620001ac60201b60201c565b620006f5565b60026000815480929190600101919050555060405180610100016040528060025481526020018881526020018781526020018681526020018581526020018481526020018381526020018281525060008060025481526020019081526020016000206000820151816000015560208201518160010190805190602001906200023692919062000646565b5060408201518160020190805190602001906200025592919062000646565b5060608201518160030190805190602001906200027492919062000646565b5060808201518160040190805190602001906200029392919062000646565b5060a0820151816005019080519060200190620002b292919062000646565b5060c0820151816006019080519060200190620002d192919062000646565b5060e0820151816007019080519060200190620002f092919062000646565b509050507faecd8304f101271696ab7fbd1c4b57a532fc71f8276abf7582a85d7d4d83448360025488888888888888604051808981526020018060200180602001806020018060200180602001806020018060200188810388528f818151815260200191508051906020019080838360005b838110156200037f57808201518184015260208101905062000362565b50505050905090810190601f168015620003ad5780820380516001836020036101000a031916815260200191505b5088810387528e818151815260200191508051906020019080838360005b83811015620003e8578082015181840152602081019050620003cb565b50505050905090810190601f168015620004165780820380516001836020036101000a031916815260200191505b5088810386528d818151815260200191508051906020019080838360005b838110156200045157808201518184015260208101905062000434565b50505050905090810190601f1680156200047f5780820380516001836020036101000a031916815260200191505b5088810385528c818151815260200191508051906020019080838360005b83811015620004ba5780820151818401526020810190506200049d565b50505050905090810190601f168015620004e85780820380516001836020036101000a031916815260200191505b5088810384528b818151815260200191508051906020019080838360005b838110156200052357808201518184015260208101905062000506565b50505050905090810190601f168015620005515780820380516001836020036101000a031916815260200191505b5088810383528a818151815260200191508051906020019080838360005b838110156200058c5780820151818401526020810190506200056f565b50505050905090810190601f168015620005ba5780820380516001836020036101000a031916815260200191505b50888103825289818151815260200191508051906020019080838360005b83811015620005f5578082015181840152602081019050620005d8565b50505050905090810190601f168015620006235780820380516001836020036101000a031916815260200191505b509f5050505050505050505050505050505060405180910390a150505050505050565b828054600181600116156101000203166002900490600052602060002090601f016020900481019282601f106200068957805160ff1916838001178555620006ba565b82800160010185558215620006ba579182015b82811115620006b95782518255916020019190600101906200069c565b5b509050620006c99190620006cd565b5090565b620006f291905b80821115620006ee576000816000905550600101620006d4565b5090565b90565b611c0b80620007056000396000f3fe608060405234801561001057600080fd5b50600436106100625760003560e01c806306ead22e146100675780631645f5e7146102645780631bb08484146104e457806322b2174714610502578063ca26e03a14610947578063f442c06814610c7d575b600080fd5b6100936004803603602081101561007d57600080fd5b8101908080359060200190929190505050610c9b565b60405180878152602001806020018060200180602001806020018615151515815260200185810385528a818151815260200191508051906020019080838360005b838110156100ef5780820151818401526020810190506100d4565b50505050905090810190601f16801561011c5780820380516001836020036101000a031916815260200191505b50858103845289818151815260200191508051906020019080838360005b8381101561015557808201518184015260208101905061013a565b50505050905090810190601f1680156101825780820380516001836020036101000a031916815260200191505b50858103835288818151815260200191508051906020019080838360005b838110156101bb5780820151818401526020810190506101a0565b50505050905090810190601f1680156101e85780820380516001836020036101000a031916815260200191505b50858103825287818151815260200191508051906020019080838360005b83811015610221578082015181840152602081019050610206565b50505050905090810190601f16801561024e5780820380516001836020036101000a031916815260200191505b509a505050505050505050505060405180910390f35b6104e26004803603608081101561027a57600080fd5b810190808035906020019064010000000081111561029757600080fd5b8201836020820111156102a957600080fd5b803590602001918460018302840111640100000000831117156102cb57600080fd5b91908080601f016020809104026020016040519081016040528093929190818152602001838380828437600081840152601f19601f8201169050808301925050505050505091929192908035906020019064010000000081111561032e57600080fd5b82018360208201111561034057600080fd5b8035906020019184600183028401116401000000008311171561036257600080fd5b91908080601f016020809104026020016040519081016040528093929190818152602001838380828437600081840152601f19601f820116905080830192505050505050509192919290803590602001906401000000008111156103c557600080fd5b8201836020820111156103d757600080fd5b803590602001918460018302840111640100000000831117156103f957600080fd5b91908080601f016020809104026020016040519081016040528093929190818152602001838380828437600081840152601f19601f8201169050808301925050505050505091929192908035906020019064010000000081111561045c57600080fd5b82018360208201111561046e57600080fd5b8035906020019184600183028401116401000000008311171561049057600080fd5b91908080601f016020809104026020016040519081016040528093929190818152602001838380828437600081840152601f19601f820116905080830192505050505050509192919290505050610f44565b005b6104ec61123e565b6040518082815260200191505060405180910390f35b610945600480360360e081101561051857600080fd5b810190808035906020019064010000000081111561053557600080fd5b82018360208201111561054757600080fd5b8035906020019184600183028401116401000000008311171561056957600080fd5b91908080601f016020809104026020016040519081016040528093929190818152602001838380828437600081840152601f19601f820116905080830192505050505050509192919290803590602001906401000000008111156105cc57600080fd5b8201836020820111156105de57600080fd5b8035906020019184600183028401116401000000008311171561060057600080fd5b91908080601f016020809104026020016040519081016040528093929190818152602001838380828437600081840152601f19601f8201169050808301925050505050505091929192908035906020019064010000000081111561066357600080fd5b82018360208201111561067557600080fd5b8035906020019184600183028401116401000000008311171561069757600080fd5b91908080601f016020809104026020016040519081016040528093929190818152602001838380828437600081840152601f19601f820116905080830192505050505050509192919290803590602001906401000000008111156106fa57600080fd5b82018360208201111561070c57600080fd5b8035906020019184600183028401116401000000008311171561072e57600080fd5b91908080601f016020809104026020016040519081016040528093929190818152602001838380828437600081840152601f19601f8201169050808301925050505050505091929192908035906020019064010000000081111561079157600080fd5b8201836020820111156107a357600080fd5b803590602001918460018302840111640100000000831117156107c557600080fd5b91908080601f016020809104026020016040519081016040528093929190818152602001838380828437600081840152601f19601f8201169050808301925050505050505091929192908035906020019064010000000081111561082857600080fd5b82018360208201111561083a57600080fd5b8035906020019184600183028401116401000000008311171561085c57600080fd5b91908080601f016020809104026020016040519081016040528093929190818152602001838380828437600081840152601f19601f820116905080830192505050505050509192919290803590602001906401000000008111156108bf57600080fd5b8201836020820111156108d157600080fd5b803590602001918460018302840111640100000000831117156108f357600080fd5b91908080601f016020809104026020016040519081016040528093929190818152602001838380828437600081840152601f19601f820116905080830192505050505050509192919290505050611244565b005b6109736004803603602081101561095d57600080fd5b81019080803590602001909291905050506116bb565b604051808981526020018060200180602001806020018060200180602001806020018060200188810388528f818151815260200191508051906020019080838360005b838110156109d15780820151818401526020810190506109b6565b50505050905090810190601f1680156109fe5780820380516001836020036101000a031916815260200191505b5088810387528e818151815260200191508051906020019080838360005b83811015610a37578082015181840152602081019050610a1c565b50505050905090810190601f168015610a645780820380516001836020036101000a031916815260200191505b5088810386528d818151815260200191508051906020019080838360005b83811015610a9d578082015181840152602081019050610a82565b50505050905090810190601f168015610aca5780820380516001836020036101000a031916815260200191505b5088810385528c818151815260200191508051906020019080838360005b83811015610b03578082015181840152602081019050610ae8565b50505050905090810190601f168015610b305780820380516001836020036101000a031916815260200191505b5088810384528b818151815260200191508051906020019080838360005b83811015610b69578082015181840152602081019050610b4e565b50505050905090810190601f168015610b965780820380516001836020036101000a031916815260200191505b5088810383528a818151815260200191508051906020019080838360005b83811015610bcf578082015181840152602081019050610bb4565b50505050905090810190601f168015610bfc5780820380516001836020036101000a031916815260200191505b50888103825289818151815260200191508051906020019080838360005b83811015610c35578082015181840152602081019050610c1a565b50505050905090810190601f168015610c625780820380516001836020036101000a031916815260200191505b509f5050505050505050505050505050505060405180910390f35b610c85611b2b565b6040518082815260200191505060405180910390f35b6001602052806000526040600020600091509050806000015490806001018054600181600116156101000203166002900480601f016020809104026020016040519081016040528092919081815260200182805460018160011615610100020316600290048015610d4d5780601f10610d2257610100808354040283529160200191610d4d565b820191906000526020600020905b815481529060010190602001808311610d3057829003601f168201915b505050505090806002018054600181600116156101000203166002900480601f016020809104026020016040519081016040528092919081815260200182805460018160011615610100020316600290048015610deb5780601f10610dc057610100808354040283529160200191610deb565b820191906000526020600020905b815481529060010190602001808311610dce57829003601f168201915b505050505090806003018054600181600116156101000203166002900480601f016020809104026020016040519081016040528092919081815260200182805460018160011615610100020316600290048015610e895780601f10610e5e57610100808354040283529160200191610e89565b820191906000526020600020905b815481529060010190602001808311610e6c57829003601f168201915b505050505090806004018054600181600116156101000203166002900480601f016020809104026020016040519081016040528092919081815260200182805460018160011615610100020316600290048015610f275780601f10610efc57610100808354040283529160200191610f27565b820191906000526020600020905b815481529060010190602001808311610f0a57829003601f168201915b5050505050908060050160009054906101000a900460ff16905086565b6003600081548092919060010191905055506040518060c00160405280600354815260200185815260200184815260200183815260200182815260200160001515815250600160006003548152602001908152602001600020600082015181600001556020820151816001019080519060200190610fc3929190611b31565b506040820151816002019080519060200190610fe0929190611b31565b506060820151816003019080519060200190610ffd929190611b31565b50608082015181600401908051906020019061101a929190611b31565b5060a08201518160050160006101000a81548160ff0219169083151502179055509050507f22b1bca2cde70821920620c040213bb8cf2f4c5e259340b99aa20670b4981e2a60035485858585600060405180878152602001806020018060200180602001806020018615151515815260200185810385528a818151815260200191508051906020019080838360005b838110156110c45780820151818401526020810190506110a9565b50505050905090810190601f1680156110f15780820380516001836020036101000a031916815260200191505b50858103845289818151815260200191508051906020019080838360005b8381101561112a57808201518184015260208101905061110f565b50505050905090810190601f1680156111575780820380516001836020036101000a031916815260200191505b50858103835288818151815260200191508051906020019080838360005b83811015611190578082015181840152602081019050611175565b50505050905090810190601f1680156111bd5780820380516001836020036101000a031916815260200191505b50858103825287818151815260200191508051906020019080838360005b838110156111f65780820151818401526020810190506111db565b50505050905090810190601f1680156112235780820380516001836020036101000a031916815260200191505b509a505050505050505050505060405180910390a150505050565b60035481565b60026000815480929190600101919050555060405180610100016040528060025481526020018881526020018781526020018681526020018581526020018481526020018381526020018281525060008060025481526020019081526020016000206000820151816000015560208201518160010190805190602001906112cc929190611b31565b5060408201518160020190805190602001906112e9929190611b31565b506060820151816003019080519060200190611306929190611b31565b506080820151816004019080519060200190611323929190611b31565b5060a0820151816005019080519060200190611340929190611b31565b5060c082015181600601908051906020019061135d929190611b31565b5060e082015181600701908051906020019061137a929190611b31565b509050507faecd8304f101271696ab7fbd1c4b57a532fc71f8276abf7582a85d7d4d83448360025488888888888888604051808981526020018060200180602001806020018060200180602001806020018060200188810388528f818151815260200191508051906020019080838360005b838110156114075780820151818401526020810190506113ec565b50505050905090810190601f1680156114345780820380516001836020036101000a031916815260200191505b5088810387528e818151815260200191508051906020019080838360005b8381101561146d578082015181840152602081019050611452565b50505050905090810190601f16801561149a5780820380516001836020036101000a031916815260200191505b5088810386528d818151815260200191508051906020019080838360005b838110156114d35780820151818401526020810190506114b8565b50505050905090810190601f1680156115005780820380516001836020036101000a031916815260200191505b5088810385528c818151815260200191508051906020019080838360005b8381101561153957808201518184015260208101905061151e565b50505050905090810190601f1680156115665780820380516001836020036101000a031916815260200191505b5088810384528b818151815260200191508051906020019080838360005b8381101561159f578082015181840152602081019050611584565b50505050905090810190601f1680156115cc5780820380516001836020036101000a031916815260200191505b5088810383528a818151815260200191508051906020019080838360005b838110156116055780820151818401526020810190506115ea565b50505050905090810190601f1680156116325780820380516001836020036101000a031916815260200191505b50888103825289818151815260200191508051906020019080838360005b8381101561166b578082015181840152602081019050611650565b50505050905090810190601f1680156116985780820380516001836020036101000a031916815260200191505b509f5050505050505050505050505050505060405180910390a150505050505050565b6000602052806000526040600020600091509050806000015490806001018054600181600116156101000203166002900480601f01602080910402602001604051908101604052809291908181526020018280546001816001161561010002031660029004801561176d5780601f106117425761010080835404028352916020019161176d565b820191906000526020600020905b81548152906001019060200180831161175057829003601f168201915b505050505090806002018054600181600116156101000203166002900480601f01602080910402602001604051908101604052809291908181526020018280546001816001161561010002031660029004801561180b5780601f106117e05761010080835404028352916020019161180b565b820191906000526020600020905b8154815290600101906020018083116117ee57829003601f168201915b505050505090806003018054600181600116156101000203166002900480601f0160208091040260200160405190810160405280929190818152602001828054600181600116156101000203166002900480156118a95780601f1061187e576101008083540402835291602001916118a9565b820191906000526020600020905b81548152906001019060200180831161188c57829003601f168201915b505050505090806004018054600181600116156101000203166002900480601f0160208091040260200160405190810160405280929190818152602001828054600181600116156101000203166002900480156119475780601f1061191c57610100808354040283529160200191611947565b820191906000526020600020905b81548152906001019060200180831161192a57829003601f168201915b505050505090806005018054600181600116156101000203166002900480601f0160208091040260200160405190810160405280929190818152602001828054600181600116156101000203166002900480156119e55780601f106119ba576101008083540402835291602001916119e5565b820191906000526020600020905b8154815290600101906020018083116119c857829003601f168201915b505050505090806006018054600181600116156101000203166002900480601f016020809104026020016040519081016040528092919081815260200182805460018160011615610100020316600290048015611a835780601f10611a5857610100808354040283529160200191611a83565b820191906000526020600020905b815481529060010190602001808311611a6657829003601f168201915b505050505090806007018054600181600116156101000203166002900480601f016020809104026020016040519081016040528092919081815260200182805460018160011615610100020316600290048015611b215780601f10611af657610100808354040283529160200191611b21565b820191906000526020600020905b815481529060010190602001808311611b0457829003601f168201915b5050505050905088565b60025481565b828054600181600116156101000203166002900490600052602060002090601f016020900481019282601f10611b7257805160ff1916838001178555611ba0565b82800160010185558215611ba0579182015b82811115611b9f578251825591602001919060010190611b84565b5b509050611bad9190611bb1565b5090565b611bd391905b80821115611bcf576000816000905550600101611bb7565b5090565b9056fea265627a7a72315820ff13d4f8d1c7b345f41baee9b4a0a3efceecddc4e2f41b77861e007db74a90dc64736f6c63430005100032",
  "source": "pragma solidity >=0.4.21 <0.7.0;\r\ncontract BITS {\r\n\r\n\tstruct student {\r\n\t\tuint id;\r\n\t\tstring name;\r\n\t\tstring DOB;\r\n\t\tstring highest_qualification;\r\n\t\tstring student_type;\r\n\t\tbool completed;\r\n\t}\r\n\r\n\tstruct Faculty {\r\n\t\tuint id;\r\n\t\tstring name;\r\n\t\tstring addr;\r\n\t\tstring email;\r\n\t\tstring password;\r\n\t\tstring telephone;\r\n\t\tstring department;\r\n\t\tstring subject;\r\n\t}\r\n\r\n\tmapping(uint => Faculty) public faculties;\r\n\tmapping(uint => student) public students;\r\n\tuint public faculty_count = 0;\r\n\tuint public student_count = 0;\r\n\r\n\tevent studentCreated(\r\n\t\tuint id,\r\n\t\tstring name,\r\n\t\tstring DOB,\r\n\t\tstring highest_qualification,\r\n\t\tstring student_type,\r\n\t\tbool completed\r\n\t);\r\n\tevent facultyCreated(\r\n\t\tuint id,\r\n\t\tstring name,\r\n\t\tstring addr,\r\n\t\tstring email,\r\n\t\tstring password,\r\n\t\tstring telephone,\r\n\t\tstring department,\r\n\t\tstring subject\r\n\t);\r\n\tevent TaskCompleted(\r\n    \tuint id,\r\n    \tbool completed\r\n  \t);\r\n\tconstructor() public {\r\n\t\tadd_faculty(\"Faculty\", \"Embedded\", \"OS\", \"f\", \"a\", \"r\", \"er\");\r\n\t\t\r\n\r\n\r\n\t}\r\n\r\n\tfunction add_faculty(string memory _name, string memory _addr, string memory _email, string memory _password, string memory _telephone, string memory _department, string memory _subject) public {\r\n\t\tfaculty_count++;\r\n\t\tfaculties[faculty_count] = Faculty(faculty_count, _name, _addr, _email, _password, _telephone, _department, _subject);\r\n\t\temit facultyCreated(faculty_count, _name, _addr, _email, _password, _telephone, _department, _subject);\r\n\t}\r\n\tfunction add_student(string memory _name, string memory _DOB, string memory _highest_qualification, string memory _student_type) public {\r\n\t\tstudent_count++;\r\n\t\tstudents[student_count] = student(student_count, _name, _DOB, _highest_qualification, _student_type, false);\r\n\t\temit studentCreated(student_count, _name, _DOB, _highest_qualification, _student_type, false);\r\n\t}\r\n\t\r\n}",
  "sourcePath": "C:\\Users\\Lumas\\Desktop\\EMBEDDED\\RP\\project\\contracts\\BITS.sol",
  "compiler": {
    "name": "solc",
    "version": "0.5.16+commit.9c3226ce.Emscripten.clang"
  },
  "schemaVersion": "3.2.0",
  "updatedAt": "2020-10-04T13:18:56.306Z",
  "networkType": "ethereum",
  "devdoc": {
    "methods": {}
  },
  "userdoc": {
    "methods": {}
  }
}